:0300000002093FB3
:0C093F00787FE4F6D8FD7581350209864A
:100A14000224000002200000022200FF020A00005B
:100A240002080000021E0000021C00001026007FC5
:100A340000BF00DF00EF00F700FB00FD00FE100C1C
:100A4400000100030007000F001F003F007F00FFAC
:100A5500D3EF9400EE6480948040147D6E7C00EDAD
:0F0A65001D70011CED4C70F7EF1F70E41E80E157
:010A7400225F
:1009CB0020B6457F057E00120A5520B63B0525E56E
:1009DB002570020524640745247004F524F525755C
:1009EB0080FF75A0FFE4F520F521F5227523FFF5B7
:1009FB0008F509F50AF50BF51CF51D30B6FD7F055D
:090A0B007E00120A5530B6FD22EE
:10080000E52460022138E525146022146025147067
:1008100002019614700201BE14700201E324056007
:100820000221386380FF63A0FF7F052133E4F58058
:10083000F5A022E5094508700BE52125E02426F8FE
:1008400008E6F580E509B4FF10E508B4FF0BE521E3
:1008500025E02426F808E6F5A07F967E00120A55CA
:100860000521E5217002052064084520701075807F
:10087000FF75A0FFF520F5216309FF6308FF051D43
:10088000E51D7002051C6420451C70090525E52541
:10089000700205242222E52125E02426F808E6F549
:1008A00080F5A07FC87E00120A550521E52170025F
:1008B0000520640845207005F520F5212222AF238C
:1008C0008F808FA07F647E00120A55E52315237068
:1008D000021522C3E522648094805062752200755F
:1008E00023FF22E50B450A7022F520F521AF238F67
:1008F00080EFF4F5A0E52325E0F523E52233F5228A
:100900004523702DF50A750B01802675220075238D
:10091000FFE52125E0240CF808E6F580F4F5A005B4
:1009200021E52170020520640845207004F50AF5D0
:0F0930000B7F967E00020A557580FF75A0FF228F
:0B0A750075B0FF1209CB12080080F8DA
:10094B00020A75E493A3F8E493A34003F68001F243
:10095B0008DFF48029E493A3F85407240CC8C333AD
:10096B00C4540F4420C8834004F456800146F6DF7C
:10097B00E4800B0102040810204080900A14E47EEE
:10098B00019360BCA3FF543F30E509541FFEE49371
:10099B00A360010ECF54C025E060A840B8E493A338
:1009AB00FAE493A3F8E493A3C8C582C8CAC583CA63
:1009BB00F0A3C8C582C8CAC583CADFE9DEE780BE1B
:010A540000A1
:00000001FF
